:100000000C942A000C9434000C9434000C943400AA
:100010000C9434000C9434000C9434000C94340090
:100020000C9434000C9434000C9434000C94340080
:100030000C9434000C9434000C9434000C94340070
:100040000C9434000C9434000C9434000C94340060
:100050000C94340011241FBECFE5D4E0DEBFCDBF29
:100060000E947B000C94C0000C940000FC014081B5
:1000700021E030E002C0220F331F6A95E2F7242B03
:1000800020830895FC01208181E090E002C0880F68
:10009000991F6A95E2F78223089597B1907E97B9E8
:1000A00097B1892B87B966E086E290E00E9436001E
:1000B00066E086E290E00E9442008111F9CF84B1AF
:1000C00095B1089582BB8D3C910568F08A3921E095
:1000D000920758F0863622E0920748F08333934027
:1000E00040F487E0089580E0089581E0089583E07A
:1000F00008958FE008958FEF84BB87BB81BB80E4B8
:1001000087B910BE85E986B980E00E944D0028B30A
:10011000207F28BB0E94620098B3892B88BB2FE701
:1001200089EA93E0215080409040E1F700C0000050
:1001300081E00E944D0028B32F7028BB0E9462000E
:1001400020E1829FC001112498B3892B88BB8FE7DF
:1001500099EA23E0815090402040E1F700C0000080
:1001600082E00E944D000E94620085BB8FE799EA01
:1001700023E0815090402040E1F700C00000C4CF50
:04018000F894FFCF21
:00000001FF
