S0100000466F6C6C6F7765722E73726563CA
S11300000C942A000C9434000C9434000C943400A6
S11300100C9434000C9434000C9434000C9434008C
S11300200C9434000C9434000C9434000C9434007C
S11300300C9434000C9434000C9434000C9434006C
S11300400C9434000C9434000C9434000C9434005C
S11300500C94340011241FBECFE5D4E0DEBFCDBF25
S11300600E943A000C944C000C940000779BFECF45
S11300708FB1089588B3806488BB8FEF84BB8DB142
S113008080648DB90E943600811103C08CE78FB95A
S10F0090F9CF89EE8FB9F6CFF894FFCFBA
S9030000FC
