S00E00004C65616465722E73726563C9
S11300000C942A000C9434000C9434000C943400A6
S11300100C9434000C9434000C9434000C9434008C
S11300200C9434000C9434000C9434000C9434007C
S11300300C9434000C9434000C9434000C9434006C
S11300400C9434000C9434000C9434000C9434005C
S11300500C94340011241FBECFE5D4E0DEBFCDBF25
S11300600E944E000C945F000C94000021E030E0EC
S113007002C0220F331F6A95E2F720952BBB8FB97C
S1130080779BFECF8FEF8BBB089566E08EEF0E94C7
S1130090360067E080EF0E943600089587B3806AD7
S11300A087BB8FEF85BB9DB190659DB98ABB8BBB28
S11300B09899FECF0E944500989BFECFF9CFF89403
S10500C0FFCF6C
S9030000FC
