S0100000466F6C6C6F7765722E73726563CA
S11300000C942A000C9434000C9434000C943400A6
S11300100C9434000C9434000C9434000C9434008C
S11300200C9434000C9434000C9434000C9434007C
S11300300C9434000C9434000C9434000C9434006C
S11300400C9434000C9434000C9434000C9434005C
S11300500C94340011241FBECFE5D4E0DEBFCDBF25
S11300600E943A000C9450000C940000779BFECF41
S11300708FB1089588B3806488BB8FEF84BB8DB142
S113008080648DB90E94360085BB2FEF89E698E124
S1130090215080409040E1F700C0000015BAF2CF33
S10700A0F894FFCFFE
S9030000FC
