:100000000C942A000C943C000C943C000C943C0092
:100010000C943C000C943C000C943C000C943C0070
:100020000C943C000C943C000C943C000C943C0060
:100030000C943C000C943C000C943C000C943C0050
:100040000C943C000C943C000C943C000C949701E4
:100050000C943C0011241FBECFE5D4E0DEBFCDBF21
:1000600020E0A0E6B0E001C01D92A236B207E1F7A1
:100070000E94F5010C9422020C940000FC01808186
:1000800090E002C0959587956A95E2F7F1E08F2799
:1000900081700895FC01208181E090E002C0880F0A
:1000A000991F6A95E2F782230895FC01408121E0BF
:1000B00030E002C0220F331F6A95E2F7242B208321
:1000C0000895FC01908121E030E002C0220F331F2F
:1000D0006A95E2F7209529232083089581B3807FD4
:1000E00081BB64E082E390E00E94610065E082E30E
:1000F00090E00E94550066E082E390E00E94550087
:1001000083EC99E00197F1F700C0000066E082E31C
:1001100090E00E94610063E080E390E00E944A006A
:10012000811115C093E09A95F1F7000066E082E333
:1001300090E00E94550083EC99E00197F1F700C030
:10014000000066E082E390E00E946100D4CF66E0A8
:1001500082E390E00E94550083EC99E00197F1F76B
:1001600000C0000066E082E390E00E94610064E06D
:1001700082E390E00E94610065E082E390E00E94EB
:10018000610081B38F6781BB0895CF93C82F82959B
:100190008F7082BB64E082E390E00E94550065E0CE
:1001A00082E390E00E94610066E082E390E00E94BA
:1001B000550083EC99E00197F1F700C0000066E07C
:1001C00082E390E00E946100CF70C2BB64E082E3F2
:1001D00090E00E94550065E082E390E00E9461009B
:1001E00066E082E390E00E94550083EC99E001977D
:1001F000F1F700C0000066E082E390E00E94610039
:100200000E946E00CF91089582BB64E082E390E08B
:100210000E94610065E082E390E00E94610066E078
:1002200082E390E00E94550083EC99E00197F1F79A
:1002300000C0000066E082E390E00E9461000E943E
:100240006E000895CF93C82F82958F7082BB64E0B3
:1002500082E390E00E94610065E082E390E00E940A
:10026000610066E082E390E00E94550083EC99E033
:100270000197F1F700C0000066E082E390E00E9481
:100280006100CF70C2BB64E082E390E00E94610035
:1002900065E082E390E00E94610066E082E390E026
:1002A0000E94550083EC99E00197F1F700C000002F
:1002B00066E082E390E00E9461000E946E00CF91B0
:1002C00008958FE781BB8FE99FE00197F1F700C0A8
:1002D000000083E00E94040189E194E00197F1F7B6
:1002E00000C0000083E00E94040191E29A95F1F7BA
:1002F000000083E00E94040181E28A95F1F700008A
:1003000082E00E94040191E29A95F1F7000088E2F0
:100310000E94220188E00E94220181E00E942201C5
:1003200086E00E9422018CE00E94220108951F9223
:100330000F920FB60F9211248F93809161008F5FFF
:10034000809361008F910F900FBE0F901F901895B2
:10035000CF938CE00E9422011092610081E40E9400
:10036000C50083ED90E30197F1F700C0000002C0E3
:100370001092610060E089E390E00E943E008111EC
:10038000F7CFC1E424C060E089E390E00E943E0022
:100390008823E9F010926100CA3511F0CF5F01C0E7
:1003A000C1E480E10E9422018C2F0E94C50083EDF0
:1003B00090E30197F1F700C0000002C010926100C5
:1003C00060E089E390E00E943E008111F7CF8091C8
:1003D00061008436C0F2809160008F5F809360007E
:1003E0008DE00E942201CF9108958BE083BF82E0CF
:1003F00089BF8BE98CBF78941ABA81E08BBB0E94CD
:10040000610180E80E9422018DE00E94220160E0EB
:1004100089E390E00E943E008823C9F38091600048
:10042000803169F481E00E9422011092600060E056
:1004300089E390E00E943E008111F9CFE8CF0E944D
:08044000A801E5CFF894FFCFFD
:00000001FF
