S01700005031335F457874726153657269616C2E7372656396
S11300000C942A000C943F000C943F000C943F0085
S11300100C943F000C943F000C943F000C943F0060
S11300200C943F000C943F000C943F000C94EA01A4
S11300300C943F000C943F000C943F000C943F0040
S11300400C943F000C943F000C943F000C943F0030
S11300500C943F0011241FBECFE5D4E0DEBFCDBF1A
S113006010E0A0E6B0E0EAE7F4E002C005900D92EB
S1130070A837B107D9F70E9411020C943B020C94E3
S113008000008FE08ABB8FEF8BBB0895DF92EF9265
S1130090FF920F931F93CF93DF93DD24DA943FC035
S11300A0E02EF12CF701EC58FF4F81E090E0008046
S11300B002C0880F991F0A94E2F780958BBB8FE4E6
S11300C093EC0197F1F700C0000010E021C0C12FAC
S11300D0D0E0FE01E059FF4F608189E390E00E9487
S11300E024028823A1F0F701EE0FFF1FEE0FFF1F7C
S11300F0E05AFF4FEC0FFD1FD080FE01E059FF4F87
S1130100608189E390E00E9424028111F6CF1F5F91
S11301101430E8F20F5F01C000E0043008F29FEFF2
S1130120D916D1F38D2DDF91CF911F910F91FF90AF
S1130130EF90DF900895FC01408121E030E002C09F
S1130140220F331F6A95E2F7242B20830895FC01C4
S1130150908121E030E002C0220F331F6A95E2F75C
S1130160209529232083089584B3807F84BB64E091
S113017085E390E00E94A70065E085E390E00E949B
S11301809B0066E085E390E00E949B008FE097E28D
S11301900197F1F700C0000066E085E390E00E945B
S11301A0A70063E083E390E00E943002811115C050
S11301B09DE09A95F1F7000066E085E390E00E94E7
S11301C09B008FE097E20197F1F700C0000066E022
S11301D085E390E00E94A700D4CF66E085E390E039
S11301E00E949B008FE097E20197F1F700C00000A6
S11301F066E085E390E00E94A70064E085E390E078
S11302000E94A70065E085E390E00E94A70084B304
S11302108F6784BB0895CF93C82F82958F7085BB59
S113022064E085E390E00E949B0065E085E390E054
S11302300E94A70066E085E390E00E949B008FE0A7
S113024097E20197F1F700C0000066E085E390E0D3
S11302500E94A700CF70C5BB64E085E390E00E94D4
S11302609B0065E085E390E00E94A70066E085E3DB
S113027090E00E949B008FE097E20197F1F700C0A5
S1130280000066E085E390E00E94A7000E94B400AD
S1130290CF91089585BB64E085E390E00E94A700B8
S11302A065E085E390E00E94A70066E085E390E0C6
S11302B00E949B008FE097E20197F1F700C00000D5
S11302C066E085E390E00E94A7000E94B4000895D0
S11302D0CF93C82F82958F7085BB64E085E390E04F
S11302E00E94A70065E085E390E00E94A70066E015
S11302F085E390E00E949B008FE097E20197F1F77D
S113030000C0000066E085E390E00E94A700CF7083
S1130310C5BB64E085E390E00E94A70065E085E347
S113032090E00E94A70066E085E390E00E949B00B5
S11303308FE097E20197F1F700C0000066E085E3E3
S113034090E00E94A7000E94B400CF9108958FE727
S113035084BB8FE79EE30197F1F700C0000083E0C0
S11303600E944A0187E690E10197F1F700C000007E
S113037083E00E944A0195E89A95F1F7000083E032
S11303800E944A0185E88A95F1F7000082E00E9404
S11303904A0195E89A95F1F7000088E20E94680105
S11303A088E00E94680181E00E94680186E00E9462
S11303B068018CE00E94680180E80E946801089549
S11303C091B3926091BB10BC89B988E98AB984E879
S11303D080BD08951F920F920FB60F9211242F9390
S11303E03F934F935F936F937F938F939F93AF93B9
S11303F0BF93EF93FF938CB10E940B0180E888BBFD
S1130400FF91EF91BF91AF919F918F917F916F91E8
S11304105F914F913F912F910F900FBE0F901F90BE
S1130420189578940E94A7010E94410089E10E94D6
S1130430E0018FEF87BB8FEF02C00E9446008F3F21
S1130440E1F381E68CB9F7CFFC01808190E002C032
S1130450959587956A95E2F7F1E08F278170089565
S1130460FC01208181E090E002C0880F991F6A9509
S10D0470E2F782230895F894FFCF09
S113047A0AFFFFFFFF03060900020508FF0104073C
S10B048A04050607000102034A
S9030000FC
