S00A000050312E7372656399
S11300000C942A000C9447000C9447000C9447006D
S11300100C9447000C9447000C9447000C94470040
S11300200C9447000C9447000C9447000C94470030
S11300300C9447000C9447000C9447000C94470020
S11300400C9447000C9447000C9423020C94470032
S11300500C94470011241FBECFE5D4E0DEBFCDBF12
S113006010E0A0E6B0E0EAE8F6E002C005900D92E8
S1130070AA3CB107D9F720E0AAECB0E001C01D9278
S1130080AD3CB207E1F70E9471020C9443030C9457
S1130090000080EF84BB8FEF85BB0895DF92EF9261
S11300A0FF920F931F93CF93DF93DD24DA943FC025
S11300B0E02EF12CF701EC58FF4F208181E090E015
S11300C002C0880F991F2A95E2F7809585BB8FE4BB
S11300D093EC0197F1F700C0000010E021C0C12F9C
S11300E0D0E0FE01E059FF4F608183E390E00E947D
S11300F02C038823A1F0F701EE0FFF1FEE0FFF1F63
S1130100E05AFF4FEC0FFD1FD080FE01E059FF4F76
S1130110608183E390E00E942C038111F6CF1F5F7E
S11301201430E8F20F5F01C000E0043008F29FEFE2
S1130130D916D1F38D2DDF91CF911F910F91FF909F
S1130140EF90DF900895FC01408121E030E002C08F
S1130150220F331F6A95E2F7242B20830895FC01B4
S1130160908121E030E002C0220F331F6A95E2F74C
S113017020952923208308958AB3807F8ABB64E075
S11301808BE390E00E94AF0065E08BE390E00E9477
S1130190A30067E08BE390E00E94A3008FE097E266
S11301A00197F1F700C0000067E08BE390E00E9444
S11301B0AF0063E089E390E00E943803811115C029
S11301C09DE09A95F1F7000067E08BE390E00E94D0
S11301D0A3008FE097E20197F1F700C0000067E009
S11301E08BE390E00E94AF00D4CF67E08BE390E014
S11301F00E94A3008FE097E20197F1F700C000008E
S113020067E08BE390E00E94AF0064E08BE390E052
S11302100E94AF0065E08BE390E00E94AF008AB3D8
S11302208F6B8ABB0895CF93C82F82958F708BBB39
S113023064E08BE390E00E94A30065E08BE390E030
S11302400E94AF0067E08BE390E00E94A3008FE080
S113025097E20197F1F700C0000067E08BE390E0BC
S11302600E94AF00CF70CBBB64E08BE390E00E94B0
S1130270A30065E08BE390E00E94AF0067E08BE3AE
S113028090E00E94A3008FE097E20197F1F700C08D
S1130290000067E08BE390E00E94AF000E94BC0086
S11302A0CF910895CF93DF93FC0103C00E94130103
S11302B0FE01EF01219680818111F8CFDF91CF916A
S11302C008958BBB64E08BE390E00E94AF0065E08F
S11302D08BE390E00E94AF0067E08BE390E00E9424
S11302E0A3008FE097E20197F1F700C0000067E0F8
S11302F08BE390E00E94AF000E94BC000895CF936E
S1130300C82F82958F708BBB64E08BE390E00E94D2
S1130310AF0065E08BE390E00E94AF0067E08BE301
S113032090E00E94A3008FE097E20197F1F700C0EC
S1130330000067E08BE390E00E94AF00CF70CBBB7E
S113034064E08BE390E00E94AF0065E08BE390E013
S11303500E94AF0067E08BE390E00E94A3008FE06F
S113036097E20197F1F700C0000067E08BE390E0AB
S11303700E94AF000E94BC00CF9108958FE78ABB12
S11303808FE79EE30197F1F700C0000083E00E942D
S1130390610187E690E10197F1F700C0000083E076
S11303A00E94610195E89A95F1F7000083E00E94AC
S11303B0610185E88A95F1F7000082E00E946101FD
S11303C095E89A95F1F7000088E20E947F0188E0A1
S11303D00E947F0181E00E947F0186E00E947F01EC
S11303E08CE00E947F0180E80E947F010895CF93F2
S11303F0DF93C82FD42F8A3010F4662351F08DEC8C
S1130400C89F812D1124869586958695805D0E94CE
S113041013019DECC99F912D11249695969596955F
S1130420990F892F880F880F980F8C2F891B805D57
S11304300E941301DD2321F08FEA90E00E94520113
S1130440DF91CF9108951F920F920FB60F9211244E
S11304502F933F934F935F936F937F938F939F93C8
S1130460AF93BF93CF93DF93EF93FF938091CB0030
S1130470853021F18091CC008A3001F1E6B3E69514
S1130480E695E695F0E0E858FF4F90818091CA0028
S1130490890F8093CA008081882381F08091CA00EB
S11304A040E061E00E94F701C0E0D0E004C080E1D8
S11304B00E947F012196C230D105CCF3FF91EF91C8
S11304C0DF91CF91BF91AF919F918F917F916F9168
S11304D05F914F913F912F910F900FBE0F901F90FE
S11304E018950E9449000E94BE0181E087BB8CE7F9
S11304F088BB789414BE8AB780628ABF8BB7806247
S11305008BBF1092CA0085E08093CB008AE0809371
S1130510CC0081E00E947F018CE890E00E945201AF
S113052080EC0E947F018FE00E947F0104C00E9442
S11305304E008093CB008091CB008A30C0F3809131
S1130540CB008A508093CB008091CB008F5B0E94BC
S1130550130104C00E944E008093CC008091CC0013
S11305608A30C0F78091CC00805D0E941301809195
S1130570CC0081508093CC008CE00E947F0181E00C
S11305800E947F018BE990E00E945201E091CB0030
S1130590F0E08091CC00EE0FFF1FE857FF4FE80F0B
S11305A0F11D808141E060E00E94F70180EC0E942F
S11305B07F0185EA90E00E945201C0E0D0E004C0CF
S11305C080E10E947F012196C530D105CCF3E091F2
S11305D0CB00F0E08091CC00EE0FFF1FE857FF4FF7
S11305E0E80FF11D90818091CA00891780F3E09192
S11305F0CB00F0E08091CC00EE0FFF1FE857FF4FD7
S1130600E80FF11DC08185E08093CB0081E00E945A
S11306107F0183EB90E00E94520180EC0E947F01F5
S113062081EC90E00E9452018091CA0041E061E0B7
S11306308C1B0E94F70188B3816088BB2FEF89E689
S113064098E1215080409040E1F700C0000098B349
S113065081E0892788BB55CFFC01808190E002C0EE
S1130660959587956A95E2F7F1E08F278170089553
S1130670FC01208181E090E002C0880F991F6A95F7
S10D0680E2F782230895F894FFCFF7
S113068AFF01FFFFFF02FFFFFFFFFFFFFFFF0B0A50
S113069A0302010004050607000102050A0000001E
S11306AA00000000000000000309171F456C696779
S11306BA652050726F647563746F00496E73657256
S11306CA74612024005469656E6573202430302EC9
S11306DA303000456E74726567616E646F2E2E2E1B
S10D06EA0043616D62696F20000097
S9030000FC
