S01100005072616374696361352E73726563B7
S11300000C9433000C9445000C9445000C9445006A
S11300100C9445000C9445000C9445000C94450048
S11300200C9445000C9445000C9445000C94450038
S11300300C9445000C9445000C9445000C94450028
S11300400C9445000C9445000C9445000C94450018
S11300500C9445005E006100640067006A006D0056
S113006070007300760011241FBECFE5D4E0DEBF1C
S1130070CDBF20E0A0E6B0E001C01D92A036B207DB
S1130080E1F70E94D0000C94E3000C940000FC0102
S1130090808190E002C0959587956A95E2F7F1E03A
S11300A08F2781700895E2B38E2F90E089309105F7
S11300B000F5FC01E65DFF4F0C94DD0083E28CBF8C
S11300C0089580E38CBF08958DE38CBF08958AE47E
S11300D08CBF089588E58CBF089585E68CBF08958C
S11300E082E78CBF08958FE78CBF08958AE88CBFA0
S11300F0089584E98CBF08958EEF8BBB8FE493EC55
S11301000197F1F700C0000064E089E390E00E94E9
S1130110470081110E94530064E089E390E00E944B
S113012047008111F9CF87EF8BBB8FE493EC0197E4
S1130130F1F700C0000065E089E390E00E94470009
S1130140882341F082B3882319F082B3815001C01F
S113015080E082BB65E089E390E00E944700811162
S1130160F9CF8DEF8BBB8FE493EC0197F1F700C0CF
S1130170000067E089E390E00E944700882341F093
S113018082B3893019F082B38F5F01C089E082BBEA
S113019067E089E390E00E9447008111F9CF089558
S11301A08FE08ABB8FEF8BBB81BB87BB8BE683BFA2
S11301B08DE38CBF0E947C00FDCFEE0FFF1F0590E6
S10D01C0F491E02D0994F894FFCFA8
S9030000FC
