S01600005030385F566F6C74696D6574726F2E73726563C2
S11300000C942A000C9447000C9447000C9447006D
S11300100C9447000C9447000C9447000C94470040
S11300200C9447000C9447000C9447000C94470030
S11300300C9447000C9447000C9447000C94470020
S11300400C9447000C9447000C9447000C94470010
S11300500C94470011241FBECFE5D4E0DEBFCDBF12
S113006010E0A0E6B0E0EAE3F7E002C005900D92EC
S1130070A836B107D9F720E0A8E6B0E001C01D9288
S1130080AA36B207E1F70E94CE010C949B030C94AC
S1130090000081B3807F81BB64E082E390E00E9432
S11300A0350265E082E390E00E94290266E082E383
S11300B090E00E94290283EC99E00197F1F700C0D7
S11300C0000066E082E390E00E94350263E080E392
S11300D090E00E941E02811115C093E09A95F1F7F9
S11300E0000066E082E390E00E94290283EC99E03C
S11300F00197F1F700C0000066E082E390E00E94FF
S11301003502D4CF66E082E390E00E94290283ECBA
S113011099E00197F1F700C0000066E082E390E007
S11301200E94350264E082E390E00E94350265E0BB
S113013082E390E00E94350281B38F6781BB08950A
S1130140CF93C82F82958F7082BB64E082E390E0E6
S11301500E94290265E082E390E00E94350266E095
S113016082E390E00E94290283EC99E00197F1F781
S113017000C0000066E082E390E00E943502CF7088
S1130180C2BB64E082E390E00E94290265E082E35E
S113019090E00E94350266E082E390E00E9429022A
S11301A083EC99E00197F1F700C0000066E082E378
S11301B090E00E9435020E944900CF910895CF93A8
S11301C0DF93FC0103C00E94A000FE01EF01219611
S11301D080818111F8CFDF91CF91089582BB64E0D3
S11301E082E390E00E94350265E082E390E00E94A1
S11301F0350266E082E390E00E94290283EC99E0F4
S11302000197F1F700C0000066E082E390E00E94ED
S113021035020E9449000895CF93C82F82958F70AC
S113022082BB64E082E390E00E94350265E082E3F1
S113023090E00E94350266E082E390E00E94290289
S113024083EC99E00197F1F700C0000066E082E3D7
S113025090E00E943502CF70C2BB64E082E390E07C
S11302600E94350265E082E390E00E94350266E078
S113027082E390E00E94290283EC99E00197F1F770
S113028000C0000066E082E390E00E9435020E9414
S11302904900CF9108958FE781BB8FE99FE00197D3
S11302A0F1F700C0000083E00E94EE0089E194E0D1
S11302B00197F1F700C0000083E00E94EE0091E294
S11302C09A95F1F7000083E00E94EE0081E28A959E
S11302D0F1F7000082E00E94EE0091E29A95F1F7B6
S11302E0000088E20E940C0188E00E940C0181E079
S11302F00E940C0186E00E940C018CE00E940C011B
S113030080E80E940C010895CF92DF92EF92FF9251
S11303100F931F93CF93DF9300D000D01F92CDB7DC
S1130320DEB76B017C010E944202605D69838EE24C
S11303308A8320E030E040E251E4C701B6010E9424
S1130340DE020E9442020AE010E0CB01B8010E94E2
S11303507303805D8B8320E030E048EC52E4C701F6
S1130360B6010E94DE020E944202CB01B8010E9443
S11303707303805D8C831D82CE0101960E94DF0091
S11303800F900F900F900F900F90DF91CF911F91CE
S11303900F91FF90EF90DF90CF9008950E944B0152
S11303A087E487B910BE83E986B980E690E00E94AD
S11303B0DF0080EC0E940C0166E086E290E00E947F
S11303C0290266E086E290E00E9412028111F9CFD0
S11303D064B175B1809168009091690068177907DC
S11303E059F3709369006093680080E090E00E9484
S11303F0780220E030E040EA50E40E94DE0220E08F
S113040030E040E85AE30E94DE020E948401C0E02A
S1130410D0E004C080E10E940C012196C430D105D3
S1130420CCF3CACFFC01808190E002C095958795FA
S11304306A95E2F7F1E08F2781700895FC0120812D
S113044081E090E002C0880F991F6A95E2F7822349
S11304500895FC01408121E030E002C0220F331FE7
S11304606A95E2F7242B20830895FC01908121E012
S113047030E002C0220F331F6A95E2F7209529234A
S1130480208308950E9449026894B1110C94D80203
S113049008950E94BD0288F09F5798F0B92F9927BC
S11304A0B751B0F0E1F0660F771F881F991F1AF05B
S11304B0BA95C9F714C0B13091F00E94D702B1E0E7
S11304C008950C94D702672F782F8827B85F39F0E6
S11304D0B93FCCF3869577956795B395D9F73EF4F4
S11304E090958095709561957F4F8F4F9F4F08959C
S11304F0E89409C097FB3EF49095809570956195BA
S11305007F4F8F4F9F4F9923A9F0F92F96E9BB276F
S11305109395F695879577956795B795F111F8CFEB
S1130520FAF4BB0F11F460FF1BC06F5F7F4F8F4F56
S11305309F4F16C0882311F096E911C0772321F04C
S11305409EE8872F762F05C0662371F096E8862FE4
S113055070E060E02AF09A95660F771F881FDAF73B
S1130560880F9695879597F9089557FD9058440FED
S1130570551F59F05F3F71F04795880F97FB991FFE
S113058061F09F3F79F087950895121613061406BB
S1130590551FF2CF4695F1DF08C016161706180648
S11305A0991FF1CF86957105610508940895E89423
S11305B0BB2766277727CB0197F908950E94F1029C
S11305C00C9462030E94540338F00E945B0320F0F1
S11305D0952311F00C944B030C94510311240C94A7
S11305E0D8020E94B50270F3959FC1F3950F50E0B5
S11305F0551F629FF001729FBB27F00DB11D639FD1
S1130600AA27F00DB11DAA1F649F6627B00DA11D76
S1130610661F829F2227B00DA11D621F739FB00D1C
S1130620A11D621F839FA00D611D221F749F33278C
S1130630A00D611D231F849F600D211D822F762F25
S11306406A2F11249F5750409AF0F1F088234AF002
S1130650EE0FFF1FBB1F661F771F881F915050406E
S1130660A9F79E3F510580F00C944B030C94D802DB
S11306705F3FE4F3983ED4F3869577956795B795F5
S1130680F795E7959F5FC1F7FE2B880F911D96950F
S1130690879597F9089597F99F6780E870E060E07F
S11306A008959FEF80EC089500240A941616170607
S11306B018060906089500240A941216130614064F
S11306C005060895092E0394000C11F4882352F0B2
S11306D0BB0F40F4BF2B11F460FF04C06F5F7F4F6A
S11306E08F4F9F4F089597FB072E16F4009407D061
S11306F077FD09D00E94870307FC05D03EF490954E
S113070081959F4F0895709561957F4F0895AA1B19
S1130710BB1B51E107C0AA1FBB1FA617B70710F0E8
S1130720A61BB70B881F991F5A95A9F7809590951A
S10D0730BC01CD010895F894FFCF39
S10B073A566F6C74616A6500DE
S9030000FC
