S01F00005031345F566F6C74696D6574726F506F7253657269616C2E737265632B
S11300000C942A000C9434000C9434000C943400A6
S11300100C9434000C9434000C9434000C9434008C
S11300200C9434000C9434000C9434000C9434007C
S11300300C9434000C9434000C9434000C9434006C
S11300400C9434000C9434000C9434000C9434005C
S11300500C94340011241FBECFE5D4E0DEBFCDBF25
S11300600E9470000C9490000C940000FC014081EC
S113007021E030E002C0220F331F6A95E2F7242BFF
S113008020830895FC01208181E090E002C0880F64
S1130090991F6A95E2F78223089597B1907E97B9E4
S11300A097B1892B87B966E086E290E00E9436001A
S11300B066E086E290E00E9442008111F9CF85B1AA
S11300C008958CB966E08BE290E00E944200882398
S11300D0C9F389EF90E00197F1F700C0000008959B
S11300E080E687B910BE84E986B981B3826081BB9A
S11300F010BC8CE089B988E08AB98EE880BD82E0C2
S11301000E944D00D82F0E94610001C0DC2F82E0C4
S11301100E944D00C82FD817C9F30E946100F6CF82
S1070120F894FFCF7D
S9030000FC
