:100000000C942A000C943C000C943C000C943C0092
:100010000C943C000C943C000C943C000C943C0070
:100020000C943C000C943C000C943C000C943C0060
:100030000C943C000C943C000C943C000C943C0050
:100040000C943C000C943C000C943C000C943C0040
:100050000C943C0011241FBECFE5D4E0DEBFCDBF21
:1000600020E0A0E6B0E001C01D92A136B207E1F7A2
:100070000E946D000C949D000C9400008091600023
:100080008F5F80936000843619F483E6809360006C
:100090000895809160008150809360008F3F11F43B
:1000A0001092600008953091600087E63802812D3B
:1000B000112485958595432F440F440B982F941B4D
:1000C000990F292F220F220F920F391B841B20E139
:1000D000329F800D112482BB08951ABA8FEF8BBB1B
:1000E00081BB12BAC89912C083ED90E30197F1F772
:1000F00000C00000C899F6CF0E943E00C89BFECF0A
:1001000083ED90E30197F1F700C00000CF9912C092
:1001100083ED90E30197F1F700C00000CF99E2CFA3
:100120000E944900CF9BFECF83ED90E30197F1F74A
:0E01300000C000000E945300D5CFF894FFCF0E
:00000001FF
