:100000000C942A000C943F000C943F000C943F0089
:100010000C943F000C943F000C943F000C943F0064
:100020000C943F000C943F000C943F000C943F0054
:100030000C943F000C943F000C943F000C943F0044
:100040000C943F000C943F000C943F000C943F0034
:100050000C943F0011241FBECFE5D4E0DEBFCDBF1E
:1000600010E0A0E6B0E0E6EEF4E002C005900D92EC
:10007000A038B107D9F70E9427020C9471020C94A2
:1000800000008FE084BB8FEF85BB0895DF92EF9275
:10009000FF920F931F93CF93DF93DD24DA943FC039
:1000A000E02EF12CF701EC58FF4F208181E090E029
:1000B00002C0880F991F2A95E2F7809585BB83EDD2
:1000C00090E30197F1F700C0000010E021C0C12FBC
:1000D000D0E0FE01E059FF4F608183E390E00E9491
:1000E0005A028823A1F0F701EE0FFF1FEE0FFF1F4A
:1000F000E05AFF4FEC0FFD1FD080FE01E059FF4F8B
:10010000608183E390E00E945A028111F6CF1F5F65
:100110001430E8F20F5F01C000E0043008F29FEFF6
:10012000D916D1F38D2DDF91CF911F910F91FF90B3
:10013000EF90DF900895FC01408121E030E002C0A3
:10014000220F331F6A95E2F7242B20830895FC01C8
:10015000908121E030E002C0220F331F6A95E2F760
:10016000209529232083089581B3807F81BB64E09B
:1001700082E390E00E94A70065E082E390E00E94A5
:100180009B0066E082E390E00E949B0083EC99E094
:100190000197F1F700C0000066E082E390E00E9462
:1001A000A70063E080E390E00E946602811115C021
:1001B00093E09A95F1F7000066E082E390E00E94F8
:1001C0009B0083EC99E00197F1F700C0000066E026
:1001D00082E390E00E94A700D4CF66E082E390E043
:1001E0000E949B0083EC99E00197F1F700C00000AA
:1001F00066E082E390E00E94A70064E082E390E082
:100200000E94A70065E082E390E00E94A70081B30E
:100210008F6781BB0895CF93C82F82958F7082BB63
:1002200064E082E390E00E949B0065E082E390E05E
:100230000E94A70066E082E390E00E949B0083ECAE
:1002400099E00197F1F700C0000066E082E390E0DA
:100250000E94A700CF70C2BB64E082E390E00E94DE
:100260009B0065E082E390E00E94A70066E082E3E5
:1002700090E00E949B0083EC99E00197F1F700C0A9
:10028000000066E082E390E00E94A7000E94B400B4
:10029000CF91089582BB64E082E390E00E94A700C2
:1002A00065E082E390E00E94A70066E082E390E0D0
:1002B0000E949B0083EC99E00197F1F700C00000D9
:1002C00066E082E390E00E94A7000E94B4000895D7
:1002D000CF93C82F82958F7082BB64E082E390E059
:1002E0000E94A70065E082E390E00E94A70066E01C
:1002F00082E390E00E949B0083EC99E00197F1F784
:1003000000C0000066E082E390E00E94A700CF708A
:10031000C2BB64E082E390E00E94A70065E082E354
:1003200090E00E94A70066E082E390E00E949B00BC
:1003300083EC99E00197F1F700C0000066E082E3EA
:1003400090E00E94A7000E94B400CF9108958FE72B
:1003500081BB8FE99FE00197F1F700C0000083E0C7
:100360000E944A0189E194E00197F1F700C0000082
:1003700083E00E944A0191E29A95F1F7000083E040
:100380000E944A0181E28A95F1F7000082E00E9412
:100390004A0191E29A95F1F7000088E20E94680113
:1003A00088E00E94680181E00E94680186E00E9466
:1003B00068018CE00E94680180E80E94680108954D
:1003C0000F931F93CF938C01C62F61E08CE390E0D5
:1003D0000E9466028111F9CF1FBB0EBBCDBB8CB34F
:1003E00084608CBB8CB382608CBBCF911F910F91CA
:1003F0000895CF93DF93EC0161E08CE390E00E94DD
:1004000066028111F9CFDFBBCEBB8CB381608CBBA0
:100410008DB3DF91CF910895CF93DF9381E00E9458
:100420006801C0E0D0E00DC0FE01EE0FFF1FE858EC
:10043000FF4F808191810E94F901805D0E940B0134
:100440002196C430D10584F3DF91CF9108950E94A5
:10045000A7010E9441000E940C020E944600182F32
:100460008F3FD9F318C07E0181E0E81AF108F70147
:10047000EE0FFF1FE858FF4F808191810E94F90124
:10048000682FCC0FDD1FC858DF4F888199810E94EB
:10049000E001E70102C0C3E0D0E01C161D061CF31A
:1004A0008091780090917900612F0E94E0010E9474
:1004B0000C02D3CFFC01808190E002C09595879516
:1004C0006A95E2F7F1E08F2781700895FC012081A1
:1004D00081E090E002C0880F991F6A95E2F78223BD
:0604E0000895F894FFCF1F
:1004E600070809FF040506FF010203FFFF00FFFFDF
:1004F60004050607000102030A0014001E00280076
:00000001FF
