:100000000C942A000C943C000C943C000C943C0092
:100010000C943C000C943C000C943C000C943C0070
:100020000C943C000C943C000C943C000C943C0060
:100030000C943C000C943C000C943C000C943C0050
:100040000C943C000C943C000C943C000C943C0040
:100050000C943C0011241FBECFE5D4E0DEBFCDBF21
:1000600020E0A0E6B0E001C01D92A536B207E1F79E
:100070000E9418010C9421010C940000FC01808165
:1000800090E002C0959587956A95E2F7F1E08F2799
:1000900081700895E0E6F0E09181808120E1929FF7
:1000A000800D112485BB9381828120E1929F800D78
:1000B000112482BB08958A3049F024E030E018C052
:1000C000FC01E05AFF4F1082019602C080E090E0F0
:1000D00084309105ACF311C0A90141505109FA01D6
:1000E000E05AFF4F9081F901E05AFF4F90839A0147
:1000F000121613068CF3809360000E944A00089544
:10010000CF93DF938EEF8BBB83ED90E30197F1F7F5
:1001100000C00000C4E012C06C2F89E390E00E9490
:100120003E00882351F08AE00E945B006C2F89E337
:1001300090E00E943E008111F9CFCF5FC83060F39C
:100140008DEF8BBB83ED90E30197F1F700C00000CA
:10015000C4E01AC08C2F90E00497D82FDD0FD80F81
:1001600009F4DAE06C2F89E390E00E943E008823D6
:1001700051F08D2F0E945B006C2F89E390E00E946C
:100180003E008111F9CFCF5FC83020F38BEF8BBBDE
:1001900083ED90E30197F1F700C00000D4E01AC0AE
:1001A0008D2F90E00497C82FCC0FC80F09F0C150D5
:1001B0006D2F89E390E00E943E00882351F08C2F40
:1001C0000E945B006D2F89E390E00E943E00811148
:1001D000F9CFDF5FD83020F387EF8BBB83ED90E35F
:1001E0000197F1F700C00000D4E01DC08D2F90E012
:1001F0000497982F990F890F19F0CEEFC80F01C0FF
:10020000CAE06D2F89E390E00E943E00882351F000
:100210008C2F0E945B006D2F89E390E00E943E00CE
:100220008111F9CFDF5FD83008F3DF91CF910895C6
:100230008FE08ABB8FEF8BBB81BB84BB0E948000A9
:06024000FDCFF894FFCF92
:00000001FF
