S00D000046696E616C2E737265632D
S11300000C942A000C9434000C9434000C943400A6
S11300100C9434000C9434000C9434000C9434008C
S11300200C9434000C9434000C9434000C9434007C
S11300300C9434000C9434000C9434000C9434006C
S11300400C9434000C9434000C9434000C9434005C
S11300500C94340011241FBECFE5D4E0DEBFCDBF25
S11300600E94EB010C9431020C9400008AB3807F4F
S11300708ABB64E08BE390E00E94240265E08BE39A
S113008090E00E94180266E08BE390E00E94180260
S11300908FEC97E00197F1F700C0000066E08BE376
S11300A090E00E94240263E089E390E00E940D0244
S11300B0811115C092E09A95F1F700C066E08BE3D8
S11300C090E00E9418028FEC97E00197F1F700C0CE
S11300D0000066E08BE390E00E942402D4CF66E047
S11300E08BE390E00E9418028FEC97E00197F1F700
S11300F000C0000066E08BE390E00E94240264E00C
S11301008BE390E00E94240265E08BE390E00E9480
S113011024028AB38F678ABB0895CF93C82F829530
S11301208F708BBB64E08BE390E00E94180265E063
S11301308BE390E00E94240266E08BE390E00E944F
S113014018028FEC97E00197F1F700C0000066E019
S11301508BE390E00E942402CF70CBBB64E08BE37E
S113016090E00E94180265E08BE390E00E94240274
S113017066E08BE390E00E9418028FEC97E0019711
S1130180F1F700C0000066E08BE390E00E942402D7
S11301900E943600CF910895CF93DF93FC0103C0F2
S11301A00E948D00FE01EF01219680818111F8CF1C
S11301B0DF91CF9108958BBB64E08BE390E00E94C4
S11301C0240265E08BE390E00E94240266E08BE366
S11301D090E00E9418028FE19EE40197F1F700C0BD
S11301E0000066E08BE390E00E9424020E94360047
S11301F00895CF93C82F82958F708BBB64E08BE3F7
S113020090E00E94240265E08BE390E00E942402C7
S113021066E08BE390E00E9418028FEC97E0019770
S1130220F1F700C0000066E08BE390E00E94240236
S1130230CF70CBBB64E08BE390E00E94240265E0C6
S11302408BE390E00E94240266E08BE390E00E943E
S113025018028FEC97E00197F1F700C0000066E008
S11302608BE390E00E9424020E943600CF9108950F
S11302708FE78ABB8FEF9CE70197F1F700C000007E
S113028083E00E94DB008FEC90E20197F1F700C05D
S1130290000083E00E94DB0087EC90E00197F1F717
S11302A000C0000083E00E94DB0087EC90E001972F
S11302B0F1F700C0000082E00E94DB0087EC90E0D0
S11302C00197F1F700C0000088E20E94F90088E07D
S11302D00E94F90081E00E94F90086E00E94F90082
S11302E08CE00E94F90080E80E94F9000895CF9301
S11302F0DF9300D000D0CDB7DEB71C8222E030E01F
S113030019C0E1E0F0E0EC0FFD1FE20FF31F9DECDC
S1130310899F912D1124969596959695592F550F51
S1130320452F440F440F450F841B805D8083892F24
S1130330215031098111E5CF0AC0E1E0F0E0EC0F72
S1130340FD1FE20FF31F80E3808321503109332323
S1130350A4F7CE0101960E94CC000F900F900F904D
S11303600F90DF91CF91089584EA86BF06B607FE09
S1130370FDCF81B1089583B984E886BF06B607FE30
S1130380FDCF089583B984E886BF06B607FEFDCF86
S1130390089584E986BF089584E886BF06B607FEFB
S11303A0FDCF83B10895CF93C82F0E94B40182E595
S11303B00E94BB018C2F80680E94C2010E94B4017C
S11303C083E50E94BB010E94CC01C82F0E94C90191
S11303D08C2FCF9108950E94380183B7896683BF1B
S11303E08FB5826A8FBD8EB589618EBD8FEF90E027
S11303F097BD86BD27B3286027BB21B3206321BBEB
S11304002FEF2CBF9BBD8ABD99BD88BD25BB82E162
S11304100E94D3010E947701FFCFFC01208181E07B
S113042090E002C0880F991F6A95E2F7822308952D
S1130430FC01408121E030E002C0220F331F6A95A5
S1130440E2F7242B20830895FC01908121E030E021
S113045002C0220F331F6A95E2F7209529232083D7
S10904600895F894FFCF9B
S9030000FC
