S00D000046696E616C2E737265632D
S11300000C942A000C943F000C943F000C943F0085
S11300100C943F000C943F000C943F000C943F0060
S11300200C943F000C943F000C943F000C943F0050
S11300300C943F000C943F000C943F000C943F0040
S11300400C943F000C943F000C943F000C943F0030
S11300500C943F0011241FBECFE5D4E0DEBFCDBF1A
S113006010E0A0E6B0E0E8EDF4E002C005900D92E7
S1130070A037B107D9F70E94F8010C946A020C94D6
S113008000008AB3807F8ABB64E08BE390E00E9427
S11300905D0265E08BE390E00E94510266E08BE331
S11300A090E00E94510289EF90E00197F1F700C0BF
S11300B0000066E08BE390E00E945D0263E089E368
S11300C090E00E944602811112C0000066E08BE3BA
S11300D090E00E94510289EF90E00197F1F700C08F
S11300E0000066E08BE390E00E945D02D7CF66E0FB
S11300F08BE390E00E94510289EF90E00197F1F7C1
S113010000C0000066E08BE390E00E945D0264E0C2
S11301108BE390E00E945D0265E08BE390E00E9437
S11301205D028AB38F678ABB0895CF93C82F8295E7
S11301308F708BBB64E08BE390E00E94510265E01A
S11301408BE390E00E945D0266E08BE390E00E9406
S1130150510289EF90E00197F1F700C0000066E0DA
S11301608BE390E00E945D02CF70CBBB64E08BE335
S113017090E00E94510265E08BE390E00E945D02F2
S113018066E08BE390E00E94510289EF90E00197D2
S1130190F1F700C0000066E08BE390E00E945D028E
S11301A00E944100CF910895CF93DF93FC0103C0D7
S11301B00E949500FE01EF01219680818111F8CF04
S11301C0DF91CF9108958BBB64E08BE390E00E94B4
S11301D05D0265E08BE390E00E945D0266E08BE3E4
S11301E090E00E94510283EC99E00197F1F700C07E
S11301F0000066E08BE390E00E945D020E944100F3
S11302000895CF93C82F82958F708BBB64E08BE3E6
S113021090E00E945D0265E08BE390E00E945D0245
S113022066E08BE390E00E94510289EF90E0019731
S1130230F1F700C0000066E08BE390E00E945D02ED
S1130240CF70CBBB64E08BE390E00E945D0265E07D
S11302508BE390E00E945D0266E08BE390E00E94F5
S1130260510289EF90E00197F1F700C0000066E0C9
S11302708BE390E00E945D020E944100CF910895BB
S11302808FE78ABB8FE99FE00197F1F700C0000078
S113029083E00E94E30089E194E00197F1F700C054
S11302A0000083E00E94E30091E29A95F1F70000D8
S11302B083E00E94E30081E28A95F1F7000082E086
S11302C00E94E30091E29A95F1F7000088E20E940F
S11302D0010188E00E94010181E00E94010186E0A1
S11302E00E9401018CE00E94010180E80E9401014A
S11302F00895CF93DF9300D000D0CDB7DEB71C8232
S113030022E030E019C0E1E0F0E0EC0FFD1FE20F65
S1130310F31F9DEC899F912D1124969596959695A2
S1130320592F550F452F440F440F450F841B805DF3
S11303308083892F215031098111E5CF0AC0E1E082
S1130340F0E0EC0FFD1FE20FF31F80E380832150E8
S113035031093323A4F7CE0101960E94D4000F90F3
S11303600F900F900F90DF91CF910895FF920F930C
S11303701F93CF93DF93F82E062F142FC0E0D0E005
S113038004C080E10E9401012196CE30D105CCF356
S11303906EE08F2D0E947901C0E0D0E004C084E1BA
S11303A00E9401012196C230D105CCF369E0802F6F
S11303B00E947901C0E0D0E004C084E10E94010100
S11303C02196C230D105CCF364E0812F0E947901DB
S11303D0C0E0D0E004C084E10E94010121961C1613
S11303E01D06CCF7DF91CF911F910F91FF900895D7
S11303F00E94400180E690E00E94D4002FE38DE04B
S113040093E0215080409040E1F700C0000083B7A2
S1130410896683BF8FB5826A8FBD8EB589618EBDB3
S11304208FEF90E097BD86BD87B3886087BB81B3AB
S1130430806381BB1CBE1BBC1ABC19BC18BCE12C5C
S1130440F12C1EC04C2F602F8E2D0E94B601ECBEE5
S11304501BBD0ABDD9BDC8BD609602C0C0E0D0E0D6
S1130460CF3FD10579F374F3005F1F4F02C000E062
S113047010E00F3F110591F38CF320E1E20EF11C23
S11304808FEFE816F10499F394F3D9CFFC0120819E
S113049081E090E002C0880F991F6A95E2F78223F9
S11304A00895FC01408121E030E002C0220F331F97
S11304B06A95E2F7242B20830895FC01908121E0C2
S11304C030E002C0220F331F6A95E2F720952923FA
S10B04D020830895F894FFCF86
S11304D8283030302C203030302C20303030290077
S9030000FC
