:100000000C942A000C9441000C943F000C943F0087
:100010000C943F000C943F000C943F000C943F0064
:100020000C943F000C943F000C943F000C943F0054
:100030000C943F000C943F000C943F000C943F0044
:100040000C943F000C943F000C943F000C943F0034
:100050000C943F0011241FBECFE5D4E0DEBFCDBF1E
:1000600010E0A0E6B0E0ECE3F1E002C005900D92F4
:10007000A236B107D9F70E9481000C949C000C9421
:1000800000001F920F920FB60F9211248F939F932F
:1000900080916000833099F02CF4813041F08230FF
:1000A00051F01CC0843081F0853099F017C080E198
:1000B0008BBB18BA17C084E48BBB18BA13C081E19C
:1000C0008BBB81E088BB0EC085E48BBB81E088BB25
:1000D00009C085E58BBB81E088BB04C08DE68BBB86
:1000E00081E088BB829BFECF83ED90E30197F1F71F
:1000F00000C000009F918F910F900FBE0F901F9036
:100100001895789485B7826085BF8AB780648ABF66
:100110008BB780648BBF8FEF8ABB81E087BB11BA3E
:1001200080916000863021F0809160008F5F01C077
:0C01300081E080936000F4CFF894FFCFD2
:02013C000100C0
:00000001FF
